{
  "_format": "hh-sol-artifact-1",
  "contractName": "Freelancer",
  "sourceName": "contracts/Freelancer.sol",
  "abi": [
    {
      "inputs": [],
      "name": "Freelancer_DEADLINE",
      "type": "error"
    },
    {
      "inputs": [],
      "name": "Freelancer_INSUFFICIENT_BALANCE",
      "type": "error"
    },
    {
      "inputs": [],
      "name": "Freelancer_ONLY_ACTIVE_JOB",
      "type": "error"
    },
    {
      "inputs": [],
      "name": "Freelancer_ONLY_HIRED_FREELANCER",
      "type": "error"
    },
    {
      "inputs": [],
      "name": "Freelancer_ONLY_WHITELISTED_FREELANCERS",
      "type": "error"
    },
    {
      "anonymous": false,
      "inputs": [
        {
          "indexed": false,
          "internalType": "uint256",
          "name": "job_id",
          "type": "uint256"
        },
        {
          "indexed": false,
          "internalType": "string",
          "name": "job_title",
          "type": "string"
        },
        {
          "indexed": false,
          "internalType": "uint256",
          "name": "job_deadline",
          "type": "uint256"
        },
        {
          "indexed": false,
          "internalType": "uint256",
          "name": "job_price",
          "type": "uint256"
        }
      ],
      "name": "EVENT_NEWJOB",
      "type": "event"
    },
    {
      "inputs": [
        {
          "internalType": "uint256",
          "name": "",
          "type": "uint256"
        }
      ],
      "name": "JobsRegistry",
      "outputs": [
        {
          "internalType": "string",
          "name": "title",
          "type": "string"
        },
        {
          "internalType": "uint256",
          "name": "deadline",
          "type": "uint256"
        },
        {
          "internalType": "uint256",
          "name": "price",
          "type": "uint256"
        },
        {
          "internalType": "bool",
          "name": "applied",
          "type": "bool"
        },
        {
          "internalType": "address",
          "name": "hiredFreelancer",
          "type": "address"
        },
        {
          "internalType": "enum Freelancer.ProjectStatus",
          "name": "status",
          "type": "uint8"
        }
      ],
      "stateMutability": "view",
      "type": "function"
    },
    {
      "inputs": [
        {
          "internalType": "string",
          "name": "_title",
          "type": "string"
        },
        {
          "internalType": "uint256",
          "name": "_deadline",
          "type": "uint256"
        },
        {
          "internalType": "uint256",
          "name": "_price",
          "type": "uint256"
        }
      ],
      "name": "PostJob",
      "outputs": [],
      "stateMutability": "payable",
      "type": "function"
    },
    {
      "inputs": [],
      "name": "_jobIds",
      "outputs": [
        {
          "internalType": "uint256",
          "name": "",
          "type": "uint256"
        }
      ],
      "stateMutability": "view",
      "type": "function"
    },
    {
      "inputs": [
        {
          "internalType": "uint256",
          "name": "_jobid",
          "type": "uint256"
        }
      ],
      "name": "applyForJob",
      "outputs": [],
      "stateMutability": "nonpayable",
      "type": "function"
    },
    {
      "inputs": [
        {
          "internalType": "uint256",
          "name": "_jobid",
          "type": "uint256"
        }
      ],
      "name": "completeJob",
      "outputs": [],
      "stateMutability": "nonpayable",
      "type": "function"
    },
    {
      "inputs": [
        {
          "internalType": "uint256",
          "name": "_id",
          "type": "uint256"
        }
      ],
      "name": "jobById",
      "outputs": [
        {
          "components": [
            {
              "internalType": "string",
              "name": "title",
              "type": "string"
            },
            {
              "internalType": "uint256",
              "name": "deadline",
              "type": "uint256"
            },
            {
              "internalType": "uint256",
              "name": "price",
              "type": "uint256"
            },
            {
              "internalType": "bool",
              "name": "applied",
              "type": "bool"
            },
            {
              "internalType": "address",
              "name": "hiredFreelancer",
              "type": "address"
            },
            {
              "internalType": "enum Freelancer.ProjectStatus",
              "name": "status",
              "type": "uint8"
            }
          ],
          "internalType": "struct Freelancer.JobDetails",
          "name": "",
          "type": "tuple"
        }
      ],
      "stateMutability": "view",
      "type": "function"
    },
    {
      "inputs": [],
      "name": "listJobs",
      "outputs": [
        {
          "components": [
            {
              "internalType": "string",
              "name": "title",
              "type": "string"
            },
            {
              "internalType": "uint256",
              "name": "deadline",
              "type": "uint256"
            },
            {
              "internalType": "uint256",
              "name": "price",
              "type": "uint256"
            },
            {
              "internalType": "bool",
              "name": "applied",
              "type": "bool"
            },
            {
              "internalType": "address",
              "name": "hiredFreelancer",
              "type": "address"
            },
            {
              "internalType": "enum Freelancer.ProjectStatus",
              "name": "status",
              "type": "uint8"
            }
          ],
          "internalType": "struct Freelancer.JobDetails[]",
          "name": "",
          "type": "tuple[]"
        }
      ],
      "stateMutability": "view",
      "type": "function"
    },
    {
      "inputs": [],
      "name": "totalJobSupply",
      "outputs": [
        {
          "internalType": "uint256",
          "name": "",
          "type": "uint256"
        }
      ],
      "stateMutability": "view",
      "type": "function"
    },
    {
      "inputs": [],
      "name": "whitelistF",
      "outputs": [],
      "stateMutability": "nonpayable",
      "type": "function"
    }
  ],
  "bytecode": "0x608060405234801561001057600080fd5b50611774806100206000396000f3fe6080604052600436106100865760003560e01c8063329d5e6211610059578063329d5e6214610135578063506566bb146101515780635da7e81114610193578063a1c0d32f146101be578063e0c94ae5146101e757610086565b8063078b92d61461008b5780630d64f28a146100c8578063264247c9146100df578063297751de1461010a575b600080fd5b34801561009757600080fd5b506100b260048036038101906100ad9190610f27565b610210565b6040516100bf9190611158565b60405180910390f35b3480156100d457600080fd5b506100dd61038f565b005b3480156100eb57600080fd5b506100f46103e9565b6040516101019190611189565b60405180910390f35b34801561011657600080fd5b5061011f6103f2565b60405161012c91906112ef565b60405180910390f35b61014f600480360381019061014a9190611446565b610704565b005b34801561015d57600080fd5b5061017860048036038101906101739190610f27565b6108f3565b60405161018a9695949392919061152c565b60405180910390f35b34801561019f57600080fd5b506101a86109f1565b6040516101b59190611189565b60405180910390f35b3480156101ca57600080fd5b506101e560048036038101906101e09190610f27565b6109f7565b005b3480156101f357600080fd5b5061020e60048036038101906102099190610f27565b610c09565b005b610218610dda565b600160008381526020019081526020016000206040518060c0016040529081600082018054610246906115c3565b80601f0160208091040260200160405190810160405280929190818152602001828054610272906115c3565b80156102bf5780601f10610294576101008083540402835291602001916102bf565b820191906000526020600020905b8154815290600101906020018083116102a257829003601f168201915b5050505050815260200160018201548152602001600282015481526020016003820160009054906101000a900460ff161515151581526020016003820160019054906101000a900473ffffffffffffffffffffffffffffffffffffffff1673ffffffffffffffffffffffffffffffffffffffff1673ffffffffffffffffffffffffffffffffffffffff1681526020016003820160159054906101000a900460ff16600281111561037257610371611058565b5b600281111561038457610383611058565b5b815250509050919050565b6001600260003373ffffffffffffffffffffffffffffffffffffffff1673ffffffffffffffffffffffffffffffffffffffff16815260200190815260200160002060006101000a81548160ff021916908315150217905550565b60008054905090565b606060016000541015610431576040517ff9e3f3f900000000000000000000000000000000000000000000000000000000815260040160405180910390fd5b6000805467ffffffffffffffff81111561044e5761044d61131b565b5b60405190808252806020026020018201604052801561048757816020015b610474610dda565b81526020019060019003908161046c5790505b509050600080600190505b600054811161064a57600160008281526020019081526020016000206040518060c00160405290816000820180546104c9906115c3565b80601f01602080910402602001604051908101604052809291908181526020018280546104f5906115c3565b80156105425780601f1061051757610100808354040283529160200191610542565b820191906000526020600020905b81548152906001019060200180831161052557829003601f168201915b5050505050815260200160018201548152602001600282015481526020016003820160009054906101000a900460ff161515151581526020016003820160019054906101000a900473ffffffffffffffffffffffffffffffffffffffff1673ffffffffffffffffffffffffffffffffffffffff1673ffffffffffffffffffffffffffffffffffffffff1681526020016003820160159054906101000a900460ff1660028111156105f5576105f4611058565b5b600281111561060757610606611058565b5b8152505083838151811061061e5761061d6115f5565b5b6020026020010181905250818061063490611653565b925050808061064290611653565b915050610492565b5060008167ffffffffffffffff8111156106675761066661131b565b5b6040519080825280602002602001820160405280156106a057816020015b61068d610dda565b8152602001906001900390816106855790505b50905060005b828110156106fa578381815181106106c1576106c06115f5565b5b60200260200101518282815181106106dc576106db6115f5565b5b602002602001018190525080806106f290611653565b9150506106a6565b5080935050505090565b808034101561073f576040517f0844f92300000000000000000000000000000000000000000000000000000000815260040160405180910390fd5b60008081548092919061075190611653565b919050555060006201518084610767919061169c565b42610772919061169c565b90506040518060c00160405280868152602001828152602001848152602001600015158152602001600073ffffffffffffffffffffffffffffffffffffffff168152602001600060028111156107cb576107ca611058565b5b815250600160008054815260200190815260200160002060008201518160000190805190602001906107fe929190610e3a565b50602082015181600101556040820151816002015560608201518160030160006101000a81548160ff02191690831515021790555060808201518160030160016101000a81548173ffffffffffffffffffffffffffffffffffffffff021916908373ffffffffffffffffffffffffffffffffffffffff16021790555060a08201518160030160156101000a81548160ff021916908360028111156108a5576108a4611058565b5b02179055509050507f456af1aa67a349e6d46b30ed64e2026a6a9276857825d746a2b899cf509876df6000548686866040516108e494939291906116f2565b60405180910390a15050505050565b6001602052806000526040600020600091509050806000018054610916906115c3565b80601f0160208091040260200160405190810160405280929190818152602001828054610942906115c3565b801561098f5780601f106109645761010080835404028352916020019161098f565b820191906000526020600020905b81548152906001019060200180831161097257829003601f168201915b5050505050908060010154908060020154908060030160009054906101000a900460ff16908060030160019054906101000a900473ffffffffffffffffffffffffffffffffffffffff16908060030160159054906101000a900460ff16905086565b60005481565b803373ffffffffffffffffffffffffffffffffffffffff166001600083815260200190815260200160002060030160019054906101000a900473ffffffffffffffffffffffffffffffffffffffff1673ffffffffffffffffffffffffffffffffffffffff1614610a93576040517fa9fb3f1200000000000000000000000000000000000000000000000000000000815260040160405180910390fd5b816001600082815260200190815260200160002060010154421115610ae4576040517f1e2dabdc00000000000000000000000000000000000000000000000000000000815260040160405180910390fd5b8260016002811115610af957610af8611058565b5b6001600083815260200190815260200160002060030160159054906101000a900460ff166002811115610b2f57610b2e611058565b5b1415610b67576040517f1e2dabdc00000000000000000000000000000000000000000000000000000000815260040160405180910390fd5b60026001600086815260200190815260200160002060030160156101000a81548160ff02191690836002811115610ba157610ba0611058565b5b02179055503373ffffffffffffffffffffffffffffffffffffffff166108fc60016000878152602001908152602001600020600201549081150290604051600060405180830381858888f19350505050158015610c02573d6000803e3d6000fd5b5050505050565b60011515600260003373ffffffffffffffffffffffffffffffffffffffff1673ffffffffffffffffffffffffffffffffffffffff16815260200190815260200160002060009054906101000a900460ff16151514610c93576040517f47f6c84a00000000000000000000000000000000000000000000000000000000815260040160405180910390fd5b8060006002811115610ca857610ca7611058565b5b6001600083815260200190815260200160002060030160159054906101000a900460ff166002811115610cde57610cdd611058565b5b14610d15576040517ff9e3f3f900000000000000000000000000000000000000000000000000000000815260040160405180910390fd5b600180600084815260200190815260200160002060030160006101000a81548160ff021916908315150217905550336001600084815260200190815260200160002060030160016101000a81548173ffffffffffffffffffffffffffffffffffffffff021916908373ffffffffffffffffffffffffffffffffffffffff160217905550600180600084815260200190815260200160002060030160156101000a81548160ff02191690836002811115610dd157610dd0611058565b5b02179055505050565b6040518060c00160405280606081526020016000815260200160008152602001600015158152602001600073ffffffffffffffffffffffffffffffffffffffff16815260200160006002811115610e3457610e33611058565b5b81525090565b828054610e46906115c3565b90600052602060002090601f016020900481019282610e685760008555610eaf565b82601f10610e8157805160ff1916838001178555610eaf565b82800160010185558215610eaf579182015b82811115610eae578251825591602001919060010190610e93565b5b509050610ebc9190610ec0565b5090565b5b80821115610ed9576000816000905550600101610ec1565b5090565b6000604051905090565b600080fd5b600080fd5b6000819050919050565b610f0481610ef1565b8114610f0f57600080fd5b50565b600081359050610f2181610efb565b92915050565b600060208284031215610f3d57610f3c610ee7565b5b6000610f4b84828501610f12565b91505092915050565b600081519050919050565b600082825260208201905092915050565b60005b83811015610f8e578082015181840152602081019050610f73565b83811115610f9d576000848401525b50505050565b6000601f19601f8301169050919050565b6000610fbf82610f54565b610fc98185610f5f565b9350610fd9818560208601610f70565b610fe281610fa3565b840191505092915050565b610ff681610ef1565b82525050565b60008115159050919050565b61101181610ffc565b82525050565b600073ffffffffffffffffffffffffffffffffffffffff82169050919050565b600061104282611017565b9050919050565b61105281611037565b82525050565b7f4e487b7100000000000000000000000000000000000000000000000000000000600052602160045260246000fd5b6003811061109857611097611058565b5b50565b60008190506110a982611087565b919050565b60006110b98261109b565b9050919050565b6110c9816110ae565b82525050565b600060c08301600083015184820360008601526110ec8282610fb4565b91505060208301516111016020860182610fed565b5060408301516111146040860182610fed565b5060608301516111276060860182611008565b50608083015161113a6080860182611049565b5060a083015161114d60a08601826110c0565b508091505092915050565b6000602082019050818103600083015261117281846110cf565b905092915050565b61118381610ef1565b82525050565b600060208201905061119e600083018461117a565b92915050565b600081519050919050565b600082825260208201905092915050565b6000819050602082019050919050565b600060c08301600083015184820360008601526111ed8282610fb4565b91505060208301516112026020860182610fed565b5060408301516112156040860182610fed565b5060608301516112286060860182611008565b50608083015161123b6080860182611049565b5060a083015161124e60a08601826110c0565b508091505092915050565b600061126583836111d0565b905092915050565b6000602082019050919050565b6000611285826111a4565b61128f81856111af565b9350836020820285016112a1856111c0565b8060005b858110156112dd57848403895281516112be8582611259565b94506112c98361126d565b925060208a019950506001810190506112a5565b50829750879550505050505092915050565b60006020820190508181036000830152611309818461127a565b905092915050565b600080fd5b600080fd5b7f4e487b7100000000000000000000000000000000000000000000000000000000600052604160045260246000fd5b61135382610fa3565b810181811067ffffffffffffffff821117156113725761137161131b565b5b80604052505050565b6000611385610edd565b9050611391828261134a565b919050565b600067ffffffffffffffff8211156113b1576113b061131b565b5b6113ba82610fa3565b9050602081019050919050565b82818337600083830152505050565b60006113e96113e484611396565b61137b565b90508281526020810184848401111561140557611404611316565b5b6114108482856113c7565b509392505050565b600082601f83011261142d5761142c611311565b5b813561143d8482602086016113d6565b91505092915050565b60008060006060848603121561145f5761145e610ee7565b5b600084013567ffffffffffffffff81111561147d5761147c610eec565b5b61148986828701611418565b935050602061149a86828701610f12565b92505060406114ab86828701610f12565b9150509250925092565b600082825260208201905092915050565b60006114d182610f54565b6114db81856114b5565b93506114eb818560208601610f70565b6114f481610fa3565b840191505092915050565b61150881610ffc565b82525050565b61151781611037565b82525050565b611526816110ae565b82525050565b600060c082019050818103600083015261154681896114c6565b9050611555602083018861117a565b611562604083018761117a565b61156f60608301866114ff565b61157c608083018561150e565b61158960a083018461151d565b979650505050505050565b7f4e487b7100000000000000000000000000000000000000000000000000000000600052602260045260246000fd5b600060028204905060018216806115db57607f821691505b602082108114156115ef576115ee611594565b5b50919050565b7f4e487b7100000000000000000000000000000000000000000000000000000000600052603260045260246000fd5b7f4e487b7100000000000000000000000000000000000000000000000000000000600052601160045260246000fd5b600061165e82610ef1565b91507fffffffffffffffffffffffffffffffffffffffffffffffffffffffffffffffff82141561169157611690611624565b5b600182019050919050565b60006116a782610ef1565b91506116b283610ef1565b9250827fffffffffffffffffffffffffffffffffffffffffffffffffffffffffffffffff038211156116e7576116e6611624565b5b828201905092915050565b6000608082019050611707600083018761117a565b818103602083015261171981866114c6565b9050611728604083018561117a565b611735606083018461117a565b9594505050505056fea264697066735822122029bd0b2a61a19bf392cc317c1e1837e021051be9271e1adcf5ce7f4895b7057464736f6c63430008090033",
  "linkReferences": {},
  "deployedLinkReferences": {}
}